{"abi":[{"type":"constructor","inputs":[],"stateMutability":"nonpayable"},{"type":"function","name":"allowance","inputs":[{"name":"owner","type":"address","internalType":"address"},{"name":"spender","type":"address","internalType":"address"}],"outputs":[{"name":"","type":"uint256","internalType":"uint256"}],"stateMutability":"view"},{"type":"function","name":"approve","inputs":[{"name":"spender","type":"address","internalType":"address"},{"name":"value","type":"uint256","internalType":"uint256"}],"outputs":[{"name":"","type":"bool","internalType":"bool"}],"stateMutability":"nonpayable"},{"type":"function","name":"balanceOf","inputs":[{"name":"account","type":"address","internalType":"address"}],"outputs":[{"name":"","type":"uint256","internalType":"uint256"}],"stateMutability":"view"},{"type":"function","name":"decimals","inputs":[],"outputs":[{"name":"","type":"uint8","internalType":"uint8"}],"stateMutability":"view"},{"type":"function","name":"deposit","inputs":[],"outputs":[],"stateMutability":"payable"},{"type":"function","name":"mint","inputs":[{"name":"to","type":"address","internalType":"address"},{"name":"amount","type":"uint256","internalType":"uint256"}],"outputs":[],"stateMutability":"nonpayable"},{"type":"function","name":"name","inputs":[],"outputs":[{"name":"","type":"string","internalType":"string"}],"stateMutability":"view"},{"type":"function","name":"symbol","inputs":[],"outputs":[{"name":"","type":"string","internalType":"string"}],"stateMutability":"view"},{"type":"function","name":"totalSupply","inputs":[],"outputs":[{"name":"","type":"uint256","internalType":"uint256"}],"stateMutability":"view"},{"type":"function","name":"transfer","inputs":[{"name":"to","type":"address","internalType":"address"},{"name":"value","type":"uint256","internalType":"uint256"}],"outputs":[{"name":"","type":"bool","internalType":"bool"}],"stateMutability":"nonpayable"},{"type":"function","name":"transferFrom","inputs":[{"name":"from","type":"address","internalType":"address"},{"name":"to","type":"address","internalType":"address"},{"name":"value","type":"uint256","internalType":"uint256"}],"outputs":[{"name":"","type":"bool","internalType":"bool"}],"stateMutability":"nonpayable"},{"type":"function","name":"withdraw","inputs":[{"name":"amount","type":"uint256","internalType":"uint256"}],"outputs":[],"stateMutability":"nonpayable"},{"type":"event","name":"Approval","inputs":[{"name":"owner","type":"address","indexed":true,"internalType":"address"},{"name":"spender","type":"address","indexed":true,"internalType":"address"},{"name":"value","type":"uint256","indexed":false,"internalType":"uint256"}],"anonymous":false},{"type":"event","name":"Transfer","inputs":[{"name":"from","type":"address","indexed":true,"internalType":"address"},{"name":"to","type":"address","indexed":true,"internalType":"address"},{"name":"value","type":"uint256","indexed":false,"internalType":"uint256"}],"anonymous":false},{"type":"error","name":"ERC20InsufficientAllowance","inputs":[{"name":"spender","type":"address","internalType":"address"},{"name":"allowance","type":"uint256","internalType":"uint256"},{"name":"needed","type":"uint256","internalType":"uint256"}]},{"type":"error","name":"ERC20InsufficientBalance","inputs":[{"name":"sender","type":"address","internalType":"address"},{"name":"balance","type":"uint256","internalType":"uint256"},{"name":"needed","type":"uint256","internalType":"uint256"}]},{"type":"error","name":"ERC20InvalidApprover","inputs":[{"name":"approver","type":"address","internalType":"address"}]},{"type":"error","name":"ERC20InvalidReceiver","inputs":[{"name":"receiver","type":"address","internalType":"address"}]},{"type":"error","name":"ERC20InvalidSender","inputs":[{"name":"sender","type":"address","internalType":"address"}]},{"type":"error","name":"ERC20InvalidSpender","inputs":[{"name":"spender","type":"address","internalType":"address"}]}],"bytecode":{"object":"0x608060405234801561000f575f80fd5b506040518060400160405280600881526020016709adec6d6ae8aa8960c31b8152506040518060400160405280600581526020016409aae8aa8960db1b815250816003908161005e919061010d565b50600461006b828261010d565b5050506101c8565b634e487b7160e01b5f52604160045260245ffd5b600181811c9082168061009b57607f821691505b6020821081036100b957634e487b7160e01b5f52602260045260245ffd5b50919050565b601f821115610108575f81815260208120601f850160051c810160208610156100e55750805b601f850160051c820191505b81811015610104578281556001016100f1565b5050505b505050565b81516001600160401b0381111561012657610126610073565b61013a816101348454610087565b846100bf565b602080601f83116001811461016d575f84156101565750858301515b5f19600386901b1c1916600185901b178555610104565b5f85815260208120601f198616915b8281101561019b5788860151825594840194600190910190840161017c565b50858210156101b857878501515f19600388901b60f8161c191681555b5050505050600190811b01905550565b61088e806101d55f395ff3fe6080604052600436106100a5575f3560e01c806340c10f191161006257806340c10f191461017b57806370a082311461019a57806395d89b41146101ce578063a9059cbb146101e2578063d0e30db014610201578063dd62ed3e14610209575f80fd5b806306fdde03146100a9578063095ea7b3146100d357806318160ddd1461010257806323b872dd146101205780632e1a7d4d1461013f578063313ce56714610160575b5f80fd5b3480156100b4575f80fd5b506100bd61024d565b6040516100ca91906106d2565b60405180910390f35b3480156100de575f80fd5b506100f26100ed366004610738565b6102dd565b60405190151581526020016100ca565b34801561010d575f80fd5b506002545b6040519081526020016100ca565b34801561012b575f80fd5b506100f261013a366004610760565b6102f6565b34801561014a575f80fd5b5061015e610159366004610799565b610319565b005b34801561016b575f80fd5b50604051601281526020016100ca565b348015610186575f80fd5b5061015e610195366004610738565b610351565b3480156101a5575f80fd5b506101126101b43660046107b0565b6001600160a01b03165f9081526020819052604090205490565b3480156101d9575f80fd5b506100bd61035b565b3480156101ed575f80fd5b506100f26101fc366004610738565b61036a565b61015e610377565b348015610214575f80fd5b506101126102233660046107d0565b6001600160a01b039182165f90815260016020908152604080832093909416825291909152205490565b60606003805461025c90610801565b80601f016020809104026020016040519081016040528092919081815260200182805461028890610801565b80156102d35780601f106102aa576101008083540402835291602001916102d3565b820191905f5260205f20905b8154815290600101906020018083116102b657829003601f168201915b5050505050905090565b5f336102ea818585610383565b60019150505b92915050565b5f33610303858285610395565b61030e858585610415565b506001949350505050565b6103233382610472565b604051339082156108fc029083905f818181858888f1935050505015801561034d573d5f803e3d5ffd5b5050565b61034d82826104a6565b60606004805461025c90610801565b5f336102ea818585610415565b61038133346104a6565b565b61039083838360016104da565b505050565b6001600160a01b038381165f908152600160209081526040808320938616835292905220545f19811461040f578181101561040157604051637dc7a0d960e11b81526001600160a01b038416600482015260248101829052604481018390526064015b60405180910390fd5b61040f84848484035f6104da565b50505050565b6001600160a01b03831661043e57604051634b637e8f60e11b81525f60048201526024016103f8565b6001600160a01b0382166104675760405163ec442f0560e01b81525f60048201526024016103f8565b6103908383836105ac565b6001600160a01b03821661049b57604051634b637e8f60e11b81525f60048201526024016103f8565b61034d825f836105ac565b6001600160a01b0382166104cf5760405163ec442f0560e01b81525f60048201526024016103f8565b61034d5f83836105ac565b6001600160a01b0384166105035760405163e602df0560e01b81525f60048201526024016103f8565b6001600160a01b03831661052c57604051634a1406b160e11b81525f60048201526024016103f8565b6001600160a01b038085165f908152600160209081526040808320938716835292905220829055801561040f57826001600160a01b0316846001600160a01b03167f8c5be1e5ebec7d5bd14f71427d1e84f3dd0314c0f7b2291e5b200ac8c7c3b9258460405161059e91815260200190565b60405180910390a350505050565b6001600160a01b0383166105d6578060025f8282546105cb9190610839565b909155506106469050565b6001600160a01b0383165f90815260208190526040902054818110156106285760405163391434e360e21b81526001600160a01b038516600482015260248101829052604481018390526064016103f8565b6001600160a01b0384165f9081526020819052604090209082900390555b6001600160a01b03821661066257600280548290039055610680565b6001600160a01b0382165f9081526020819052604090208054820190555b816001600160a01b0316836001600160a01b03167fddf252ad1be2c89b69c2b068fc378daa952ba7f163c4a11628f55a4df523b3ef836040516106c591815260200190565b60405180910390a3505050565b5f6020808352835180828501525f5b818110156106fd578581018301518582016040015282016106e1565b505f604082860101526040601f19601f8301168501019250505092915050565b80356001600160a01b0381168114610733575f80fd5b919050565b5f8060408385031215610749575f80fd5b6107528361071d565b946020939093013593505050565b5f805f60608486031215610772575f80fd5b61077b8461071d565b92506107896020850161071d565b9150604084013590509250925092565b5f602082840312156107a9575f80fd5b5035919050565b5f602082840312156107c0575f80fd5b6107c98261071d565b9392505050565b5f80604083850312156107e1575f80fd5b6107ea8361071d565b91506107f86020840161071d565b90509250929050565b600181811c9082168061081557607f821691505b60208210810361083357634e487b7160e01b5f52602260045260245ffd5b50919050565b808201808211156102f057634e487b7160e01b5f52601160045260245ffdfea26469706673582212200fc00af9f28aa0972274ecaf747c6ca072d7fa7160e7276d13549db5280a9df864736f6c63430008140033","linkReferences":{}},"methodIdentifiers":{"allowance(address,address)":"dd62ed3e","approve(address,uint256)":"095ea7b3","balanceOf(address)":"70a08231","decimals()":"313ce567","deposit()":"d0e30db0","mint(address,uint256)":"40c10f19","name()":"06fdde03","symbol()":"95d89b41","totalSupply()":"18160ddd","transfer(address,uint256)":"a9059cbb","transferFrom(address,address,uint256)":"23b872dd","withdraw(uint256)":"2e1a7d4d"},"id":21}