{"abi":[{"type":"constructor","inputs":[{"name":"tokenAddress","type":"address","internalType":"address"}],"stateMutability":"nonpayable"},{"type":"function","name":"MAX_DEPOSIT_AMOUNT","inputs":[],"outputs":[{"name":"","type":"uint256","internalType":"uint256"}],"stateMutability":"view"},{"type":"function","name":"MIN_DEPOSIT_AMOUNT","inputs":[],"outputs":[{"name":"","type":"uint256","internalType":"uint256"}],"stateMutability":"view"},{"type":"function","name":"balances","inputs":[{"name":"","type":"address","internalType":"address"}],"outputs":[{"name":"","type":"uint256","internalType":"uint256"}],"stateMutability":"view"},{"type":"function","name":"deposit","inputs":[{"name":"amount","type":"uint256","internalType":"uint256"}],"outputs":[],"stateMutability":"nonpayable"},{"type":"function","name":"getInterestPerAnnum","inputs":[],"outputs":[],"stateMutability":"nonpayable"},{"type":"function","name":"timestamps","inputs":[{"name":"","type":"address","internalType":"address"}],"outputs":[{"name":"","type":"uint256","internalType":"uint256"}],"stateMutability":"view"},{"type":"function","name":"token","inputs":[],"outputs":[{"name":"","type":"address","internalType":"contract Token"}],"stateMutability":"view"},{"type":"function","name":"totalDeposited","inputs":[],"outputs":[{"name":"","type":"uint256","internalType":"uint256"}],"stateMutability":"view"},{"type":"function","name":"withdraw","inputs":[{"name":"amount","type":"uint256","internalType":"uint256"},{"name":"_addr","type":"address","internalType":"address"}],"outputs":[],"stateMutability":"nonpayable"},{"type":"event","name":"Deposit","inputs":[{"name":"depositor","type":"address","indexed":false,"internalType":"address"},{"name":"amount","type":"uint256","indexed":false,"internalType":"uint256"},{"name":"totalDeposited","type":"uint256","indexed":false,"internalType":"uint256"}],"anonymous":false},{"type":"event","name":"Withdraw","inputs":[{"name":"user","type":"address","indexed":false,"internalType":"address"},{"name":"amount","type":"uint256","indexed":false,"internalType":"uint256"}],"anonymous":false}],"bytecode":{"object":"0x608060405234801561000f575f80fd5b5060405161078738038061078783398101604081905261002e91610052565b5f80546001600160a01b0319166001600160a01b039290921691909117905561007f565b5f60208284031215610062575f80fd5b81516001600160a01b0381168114610078575f80fd5b9392505050565b6106fb8061008c5f395ff3fe608060405234801561000f575f80fd5b506004361061008f575f3560e01c80636c15d0d0116100635780636c15d0d0146100fa578063b6b55f2514610102578063e9c98e6814610115578063fc0c546a14610134578063ff50abdc1461015e575f80fd5b8062f714ce146100935780631ea30fef146100a857806327e235e3146100ca5780634c34a982146100e9575b5f80fd5b6100a66100a13660046105cf565b610167565b005b6100b7670de0b6b3a764000081565b6040519081526020015b60405180910390f35b6100b76100d83660046105f9565b60016020525f908152604090205481565b6100b769d3c21bcecceda100000081565b6100a66102ac565b6100a6610110366004610619565b61041a565b6100b76101233660046105f9565b60026020525f908152604090205481565b5f54610146906001600160a01b031681565b6040516001600160a01b0390911681526020016100c1565b6100b760035481565b335f9081526001602052604090205482106101c05760405162461bcd60e51b8152602060048201526014602482015273696e73756666696369656e742062616c616e636560601b60448201526064015b60405180910390fd5b335f90815260016020526040812080548492906101de908490610644565b925050819055508160035f8282546101f69190610644565b90915550505f5460405163a9059cbb60e01b81526001600160a01b038381166004830152602482018590529091169063a9059cbb906044016020604051808303815f875af115801561024a573d5f803e3d5ffd5b505050506040513d601f19601f8201168201806040525081019061026e919061065d565b5060408051338152602081018490527f884edad9ce6fa2440d8a54cc123490eb96d2768479d49ff9c7366125a9424364910160405180910390a15050565b335f908152600260205260409020546102c9906301e1338061067c565b4210156103235760405162461bcd60e51b815260206004820152602260248201527f63616e206f6e6c792067657420696e746572657374206166746572203120796560448201526130b960f11b60648201526084016101b7565b335f908152600160205260409020546103725760405162461bcd60e51b81526020600482015260116024820152706e6f74206d616465206465706f7369747360781b60448201526064016101b7565b335f908152600160205260408120546103e89061039090606461068f565b61039a91906106a6565b90506103a58161054c565b5f5460405163a9059cbb60e01b8152336004820152602481018390526001600160a01b039091169063a9059cbb906044016020604051808303815f875af11580156103f2573d5f803e3d5ffd5b505050506040513d601f19601f82011682018060405250810190610416919061065d565b5050565b670de0b6b3a764000081101561042e575f80fd5b335f908152600160205260408120805483929061044c90849061067c565b9091555050335f90815260026020526040812054900361047857335f9081526002602052604090204290555b8060035f828254610489919061067c565b90915550505f546040516323b872dd60e01b8152336004820152306024820152604481018390526001600160a01b03909116906323b872dd906064016020604051808303815f875af11580156104e1573d5f803e3d5ffd5b505050506040513d601f19601f82011682018060405250810190610505919061065d565b50600354604080513381526020810184905280820192909252517f90890809c654f11d6e72a28fa60149770a0d11ec6c92319d6ceb2bb0a4ea1a159181900360600190a150565b6105918160405160240161056291815260200190565b60408051601f198184030181529190526020810180516001600160e01b031663f5b1bba960e01b179052610594565b50565b80516a636f6e736f6c652e6c6f67602083015f808483855afa5050505050565b80356001600160a01b03811681146105ca575f80fd5b919050565b5f80604083850312156105e0575f80fd5b823591506105f0602084016105b4565b90509250929050565b5f60208284031215610609575f80fd5b610612826105b4565b9392505050565b5f60208284031215610629575f80fd5b5035919050565b634e487b7160e01b5f52601160045260245ffd5b8181038181111561065757610657610630565b92915050565b5f6020828403121561066d575f80fd5b81518015158114610612575f80fd5b8082018082111561065757610657610630565b808202811582820484141761065757610657610630565b5f826106c057634e487b7160e01b5f52601260045260245ffd5b50049056fea2646970667358221220240f1c8998b767c9acab9b4c7bce43407f662e43e6fab05ecf5ab1a974393cc064736f6c63430008140033","linkReferences":{}},"methodIdentifiers":{"MAX_DEPOSIT_AMOUNT()":"4c34a982","MIN_DEPOSIT_AMOUNT()":"1ea30fef","balances(address)":"27e235e3","deposit(uint256)":"b6b55f25","getInterestPerAnnum()":"6c15d0d0","timestamps(address)":"e9c98e68","token()":"fc0c546a","totalDeposited()":"ff50abdc","withdraw(uint256,address)":"00f714ce"},"id":19}